:100000000C94BE0D0C94ED0D0C94ED0D0C94ED0DB7
:100010000C94ED0D0C94ED0D0C94ED0D0C94ED0D78
:100020000C94ED0D0C94ED0D0C944A9D0C94C79D11
:100030000C94ED0D0C94ED0D0C94ED0D0C94ED0D58
:100040000C94ED0D0C9404830C94ED0D0C94ED0DBB
:100050000C94ED0D0C94ED0D0C94FA900C94AE9C58
:100060000C94ED0D0C94ED0D0C94ED0D0C94ED0D28
:100070000C94ED0D0C94ED0D0C94ED0D0C94ED0D18
:100080000C94ED0D0C94ED0D0C94ED0D0C94ED0D08
:100090000C94AA980C94ED0D409A6B9A8D9A8D9AB7
:1000A0008D9A8D9A8D9A8D9A8D9A8D9A8D9A8D9A18
:1000B0008D9A8D9A839A7B9A739A8D9A8D9A8D9A3E
:1000C0008D9A8D9A8D9A8D9A659A4B9A539A5D9ACC
:1000D000084AD73B3BCE016E84BCBFFDC12F3D6CAF
:1000E00074319ABD56833DDA3D00C77F11BED9E415
:1000F000BB4C3E916BAAAABE000000803F05A84CF5
:10010000CDB2D44EB93836A9020C50B991868808C0
:100110003CA6AAAA2ABE000000803F00446F6E657C
:1001200020736176696E672066696C652E0A004DE2
:100130003239002020506C616E6E657242756666C1
:10014000657242797465733A2000204672656520B5
:100150004D656D6F72793A2000436F6D70696C6503
:10016000643A204A756C20313520323031370A002C
:10017000207C20417574686F723A20286E6F6E651E
:100180002C2064656661756C7420636F6E666967A8
:10019000290A00323031372D30352D3330203132BD
:1001A0003A303000204C617374205570646174657E
:1001B000643A2000312E312E320A004D61726C6992
:1001C0006E0020536F6674776172652052657365A7
:1001D000740A00205761746368646F672052657306
:1001E00065740A002042726F776E206F757420521A
:1001F000657365740A002045787465726E616C20C1
:1002000052657365740A00506F77657255700A0005
:1002100073746172740A005072696E74657220683A
:10022000616C7465642E206B696C6C282920636195
:100230006C6C6564210A004B494C4C45442E2000EF
:100240004B494C4C2063617573656420627920745E
:100250006F6F206D75636820696E61637469766580
:100260002074696D65202D2063757272656E74202F
:10027000636F6D6D616E643A200020746F6F206C47
:100280006F6E6720657874727573696F6E20707217
:100290006576656E7465640A0020636F6C64206522
:1002A0007874727573696F6E2070726576656E749E
:1002B00065640A006F6B00526573656E643A2000D6
:1002C0004E6F2063617365206C696768740A003A39
:1002D00020007A5F6D696E3A20202D3230207A5FDF
:1002E0006D61783A20203230005A204F666673657F
:1002F000742000546F6F206661722066726F6D20EB
:100300007265666572656E636520706F696E740AEA
:1003100000426564204C6576656C696E6720004616
:1003200061696C656420746F20656E61626C652024
:10033000426564204C6576656C696E670A004265AB
:1003400064204C6576656C20436F727265637469D6
:100350006F6E204D61747269783A0043290A00611A
:10036000626C656420286D696E2074656D70200074
:10037000436F6C6420657874727564657320617274
:1003800065200020643A0020693A0020703A00207D
:100390005A00205900580020204D61783A20002052
:1003A0005A00205900580020204D696E3A20004F15
:1003B0006666004F6E2000536F667420656E64732E
:1003C000746F70733A200053657474696E672054BB
:1003D000726176656C20416363656C6572617469F6
:1003E0006F6E3A200053657474696E6720526574AD
:1003F0007261637420416363656C65726174696FD7
:100400006E3A200053657474696E67205072696E8D
:100410007420416363656C65726174696F6E3A2024
:100420000053657474696E67205072696E74206140
:100430006E642054726176656C20416363656C65FF
:10044000726174696F6E3A20004649524D574152AD
:10045000455F4E414D453A4D61726C696E20312EBB
:10046000312E3220284769746875622920534F5510
:100470005243455F434F44455F55524C3A6874744C
:1004800070733A2F2F6769746875622E636F6D2FD2
:100490004D61726C696E4669726D776172652F4D40
:1004A00061726C696E2050524F544F434F4C5F56EF
:1004B000455253494F4E3A312E30204D4143484921
:1004C0004E455F545950453A5072696E7472626F6E
:1004D0007420536D616C6C732045585452554445DB
:1004E000525F434F554E543A3220555549443A6372
:1004F000656465326132662D343161322D343734B2
:10050000382D396231322D633535633632663336F4
:100510003766660A003F0A0020573A006F6B004DAD
:100520003131332053004B494C4C45442E2000457B
:1005300043484F00494E464F004552524F525300D8
:1005400044525952554E00434F4D4D554E4943412B
:1005500054494F4E006F6666002F0534053905403B
:1005600005470544454255473A0050726F7465632C
:100570007465642050696E0A002569730025696DF1
:1005800020256973002569682025696D2025697318
:1005900000256964202569682025696D2025697317
:1005A0000025697920256964202569682025696D01
:1005B00020256973005072696E742074696D653A04
:1005C0002000456E642066696C65206C6973740A4E
:1005D00000426567696E2066696C65206C6973749A
:1005E0000A00205A3A200020593A2000426564202F
:1005F000583A20000A0A426564204C6576656C20F2
:10060000436F7272656374696F6E204D61747269B5
:10061000783A0052756E6E696E6720696E2044529A
:10062000592D52554E206D6F64650A0047323920AE
:100630004175746F20426564204C6576656C696E07
:10064000670A003F2856296572626F7365206C65E2
:1006500076656C20697320696D706C617573696271
:100660006C652028302D34292E0A0047322F47335D
:100670002062616420706172616D65746572730AD5
:10068000004163746976652045787472756465729B
:100690003A200020403A00202F0020543A00204504
:1006A0003A00205A3A0020593A00583A00576172ED
:1006B0006E696E673A20486F6D696E672042756D8E
:1006C000702044697669736F72203C20310A0062A1
:1006D0007573793A2070617573656420666F722056
:1006E000696E7075740A00627573793A207061756D
:1006F00073656420666F7220757365720A00627597
:1007000073793A2070726F63657373696E670A005C
:10071000205A3A200020593A200042656420583A75
:1007200020002066697273740A005A00590058004C
:10073000486F6D65200020496E76616C69642065A4
:100740007874727564657220005344207265616428
:10075000206572726F720A00446F6E652070726954
:100760006E74696E672066696C650A004B494C4C73
:1007700045442E20005072696E7465722073746F48
:10078000707065642064756520746F206572726F87
:1007900072732E2046697820746865206572726FC6
:1007A0007220616E6420757365204D39393920746B
:1007B0006F20726573746172742E202854656D7099
:1007C00065726174757265206973207265736574F2
:1007D0002E205365742069742061667465722072DE
:1007E000657374617274696E67290A004E6F204CDC
:1007F000696E65204E756D62657220776974682038
:10080000636865636B73756D2C204C617374204C49
:10081000696E653A20004E6F20436865636B73759F
:100820006D2077697468206C696E65206E756D62E5
:1008300065722C204C617374204C696E653A2000FF
:10084000636865636B73756D206D69736D61746347
:10085000682C204C617374204C696E653A20004C02
:10086000696E65204E756D626572206973206E6FCA
:1008700074204C617374204C696E65204E756D62F6
:1008800065722B312C204C617374204C696E653A73
:1008900020004D31313000656E7175657565696E8A
:1008A00067202200FFFFFF0000A0400000A04000E2
:1008B0000000400000C8420000C84200000343009E
:1008C00000000000000000000000000000C842001E
:1008D00000C84200000343000000000000000000C8
:1008E0000000007C3C3E5E2B3D3F2F5B5D3B2C2A95
:1008F000225C004D3331004D383420582059205AA5
:100900002045006175746F25692E67006572726FEE
:10091000722077726974696E6720746F2066696CE3
:10092000650A004E6F74205344207072696E7469BA
:100930006E670A005344207072696E74696E672096
:1009400062797465200044656C6574696F6E206619
:1009500061696C65642C2046696C653A20004669C3
:100960006C652064656C657465643A006F70656ED3
:10097000206661696C65642C2046696C653A2000CC
:1009800057726974696E6720746F2066696C653A86
:1009900020006F70656E206661696C65642C20466E
:1009A000696C653A20006F70656E206661696C65E0
:1009B000642C2046696C653A200046696C6520739A
:1009C000656C65637465640A002053697A653A2032
:1009D0000046696C65206F70656E65643A20006F33
:1009E00070656E206661696C65642C2046696C6573
:1009F0003A20002066696C653A20004E6F7720002F
:100A00002220706F73002220706172656E743A222A
:100A100000535542524F5554494E452043414C4C8A
:100A2000207461726765743A22004B494C4C45440E
:100A30002E2000747279696E6720746F2063616C78
:100A40006C207375622D67636F64652066696C65E1
:100A500073207769746820746F6F206D616E7920E0
:100A60006C6576656C732E204D4158206C657665FB
:100A70006C2069733A004D3234004D3233202573B7
:100A80000053442063617264206F6B0A006F7065CD
:100A90006E526F6F74206661696C65640A00766FD0
:100AA0006C756D652E696E6974206661696C65642C
:100AB0000A00534420696E6974206661696C0A00FB
:100AC00043616E6E6F74206F70656E207375626423
:100AD0006972200020204D383531205A005A2D509F
:100AE000726F6265204F666673657420286D6D298C
:100AF0003A0A0020440020490020204D33303120A4
:100B000050005049442073657474696E67733A0AE3
:100B10000020204D3432302053004175746F204244
:100B20006564204C6576656C696E673A0A00205AE8
:100B30000020590020204D323036205800486F6D7B
:100B400065206F66667365743A0A00204500205A76
:100B50000020590020580020420020540020204D41
:100B6000323035205300416476616E6365643A200B
:100B7000533C6D696E5F66656564726174653E20A5
:100B8000543C6D696E5F74726176656C5F66656515
:100B900064726174653E20423C6D696E5F73656787
:100BA0006D656E745F74696D655F6D733E20583C52
:100BB0006D61785F78795F6A65726B3E205A3C6D33
:100BC00061785F7A5F6A65726B3E20453C6D617843
:100BD0005F655F6A65726B3E0A0020540020520018
:100BE00020204D323034205000416363656C6572C3
:100BF0006174696F6E2028756E6974732F73322962
:100C00003A20503C7072696E745F616363656C3E3C
:100C100020523C726574726163745F616363656CDA
:100C20003E20543C74726176656C5F616363656CF1
:100C30003E0A00204500205A0020590020204D3255
:100C400030312058004D6178696D756D20416363C6
:100C5000656C65726174696F6E2028756E69747356
:100C60002F7332293A0A00204500205A00205900EB
:100C700020204D3230332058004D6178696D756DFC
:100C8000206665656472617465732028756E697489
:100C9000732F73293A0A00204500205A002059007A
:100CA00020204D39322058005374657073207065D0
:100CB0007220756E69743A0A0020204D323030205F
:100CC00044300A0020204D3230302054312044007E
:100CD00020204D3230302044002044697361626C22
:100CE00065640A0046696C616D656E742073657495
:100CF00074696E67733A002020473231202020202B
:100D00003B20556E69747320696E206D6D0A004832
:100D1000617264636F6465642044656661756C74B8
:100D20002053657474696E6773204C6F61646564E9
:100D30000A00202863616C63756C61746564292105
:100D40000A0020213D2000454550524F4D2043527E
:100D500043206D69736D61746368202D202873745E
:100D60006F726564292000290A0020627974657316
:100D70003B2063726320002073746F72656420737C
:100D8000657474696E6773207265747269657665DF
:100D900064202800204D61726C696E3D56333829FD
:100DA0000A0028454550524F4D3D00454550524F91
:100DB0004D2076657273696F6E206D69736D617415
:100DC00063682000290A002062797465733B206300
:100DD0007263200053657474696E67732053746F77
:100DE0007265642028004572726F72207772697490
:100DF000696E6720746F20454550524F4D210A009F
:100E00007A5F6D696E3A2000795F6D696E3A2000F5
:100E1000785F6D696E3A20005265706F7274696E0A
:100E20006720656E6473746F70207374617475737A
:100E30000A00205A3A0020593A0020583A00656EBC
:100E40006473746F7073206869743A2000556E6B18
:100E50006E6F776E20636F6D6D616E643A20220055
:100E600020746F6F206C6F6E672065787472757375
:100E7000696F6E2070726576656E7465640A002015
:100E8000636F6C6420657874727573696F6E20701F
:100E9000726576656E7465640A006563686F3A0012
:100EA0004572726F723A00205A3A0020593A002077
:100EB000436F756E7420583A004D383420582059CD
:100EC000205A20450024F4D43050C38E20C2A240C2
:100ED00017828B7011127A910D816CD90AA861E189
:100EE00008C7586607615143061E4B5D05C145A7FB
:100EF000041A411104093D9803713931034036DB6E
:100F00000265339102D4305402802E1D02632CEE10
:100F100001752AC501B028A001102781018F256421
:100F2000012B244B01E0223401AC211F018D200D47
:100F300001801FFC00841EED00971DDF00B81CD24D
:100F400000E61BC600201BBC00641AB200B219A840
:100F5000000A19A0006A189900D117910040178B58
:100F600000B516840031167E00B31579003A15736A
:100F700000C7146F0058146A00EE136600881363EC
:100F80000025135E00C7125B006C12570015125447
:100F900000C111510070114F0021114B00D61049B2
:100FA000008D1047004610440002104200C00F4060
:100FB00000800F3E00420F3C00060F3B00CB0E3876
:100FC00000930E37005C0E3500270E3400F30D320F
:100FD00000C10D3100900D3000600D2E00320D2D3E
:100FE00000050D2C00D90C2B00AE0C2900850C2916
:100FF000005C0C2700350C27000E0C2600E80B24A3
:1010000000C40B2400A00B23007D0B23005A0B21EE
:1010100000390B2100180B2000F80A1F00D90A1E06
:1010200000BB0A1E009D0A1D00800A1D00630A1CE9
:1010300000470A1B002C0A1B00110A1A00F7091AA4
:1010400000DD091900C4091900AB0919009209173C
:10105000007B091800630917004C091600360916B1
:1010600000200916000A091500F5081500E008140B
:1010700000CC081400B8081400A408140090081349
:10108000007D0812006B0813005808120046081271
:101090000034081100230811001208110001081182
:1010A00000F0071000E0071000D0071000C0071084
:1010B00000B0070F00A107100091070E0083070F73
:1010C0000074070F0065070E0057070E0049070E52
:1010D000003B070D002E070E0020070D0013070D23
:1010E0000006070D00F9060C00ED060D00E0060CE9
:1010F00000D4060C00C8060C00BC060C00B0060CA0
:1011000000A4060B0099060C008D060B0082060B4E
:101110000077060B006C060B0061060A0057060BF1
:10112000004C060A0042060A0038060A002E060A8B
:101130000024060A001A060A001006090007060A1B
:1011400000FD050900F4050900EB050900E20509A9
:1011500000D9050900D0050900C7050900BE050929
:1011600000B5050800AD050800A50509009C0508A7
:1011700000940508008C050800840508007C05081B
:1011800000740508006C050700650508005D05078B
:1011900000560508004E05070047050700400508F2
:1011A0000038050700310507002A05070023050759
:1011B000001C050600160507000F050700080506B8
:1011C0000002050700FB040600F5040700EE040614
:1011D00000E8040600E2040700DB040600D504066C
:1011E00000CF040600C9040600C3040600BD0406BF
:1011F00000B7040600B1040500AC040600A604060E
:1012000000A00405009B0406009504050090040658
:10121000008A04050085040500800406007A0405A0
:101220000075040500700405006B040500660405E4
:1012300000610405005C0405005704050052040524
:10124000004D04050048040500430405003E040465
:10125000003A04050035040500300404002C0405A0
:101260000027040400230405001E0404001A0404DB
:101270000016040500110404000D0404000904050F
:10128000000404040000040400FC030400F8030448
:1012900000F4030400F0030400EC030400E803047A
:1012A00000E4030400E0030400DC030400D80304AA
:1012B00000D4030400D0030400CC030400C80303DB
:1012C00000C503030024F404D9201BC40C5C0E9851
:1012D00004C4095F0265077101F405F900FB04B35A
:1012E0000048048700C10369005803550003034503
:1012F00000BE023A008402310053022A002902256E
:101300000004022000E4011C00C8011900AF01170D
:101310000098011400840113007101100061011094
:101320000051010E0043010D0036010B002B010B93
:101330000020010B00150109000C01090003010840
:1013400000FB000800F3000800EB000700E40006C3
:1013500000DE000600D8000600D2000600CC000522
:1013600000C7000500C2000500BD000400B900046C
:1013700000B5000400B1000400AD000400A90004A1
:1013800000A5000300A20003009F0004009B0003CF
:1013900000980003009500020093000300900003F2
:1013A000008D0002008B000300880002008600020E
:1013B0000084000300810002007F0002007D000223
:1013C000007B000200790002007700010076000235
:1013D000007400020072000100710002006F000240
:1013E000006D0001006C0002006A0001006900024B
:1013F0000067000100660001006500010064000252
:10140000006200010061000100600001005F000255
:10141000005D0001005C0001005B0001005A00015A
:10142000005900010058000100570001005600015A
:10143000005500010054000100530000005300015A
:10144000005200010051000100500001004F000156
:10145000004E0000004E0001004D0001004C000154
:10146000004B0000004B0001004A00010049000150
:10147000004800000048000100470001004600004D
:101480000046000100450000004500010044000145
:101490000043000000430001004200000042000140
:1014A000004100000041000100400001003F000039
:1014B000003F0001003E0000003E0001003D000032
:1014C000003D0001003C0000003C0000003C000129
:1014D000003B0000003B0001003A0000003A000120
:1014E0000039000000390001003800000038000019
:1014F000003800010037000000370001003600000E
:101500000036000000360001003500000035000004
:1015100000350001003400000034000000340001F8
:1015200000330000003300000033000100320000EF
:1015300000320000003200010031000000310000E4
:1015400000310001003000000030000000300001D8
:10155000002F0000002F0000002F0000002F0001CE
:10156000002E0000002E0000002E0001002D0000C3
:10157000002D0000002D0000002D0001002C0000B7
:10158000002C0000002C0000002C0001002B0000AB
:10159000002B0000002B0000002B0001002A00009F
:1015A000002A0000002A0000002A00010029000093
:1015B0000029000000290000002900000029000186
:1015C000002800000028000000280000002800007B
:1015D000002800010027000000270000002700006D
:1015E0000027000000270001002600000026000060
:1015F0000026000000260000002600010025000053
:101600000025000000250000002500000025000046
:101610000025000100240000002400000024000038
:10162000002400000024000100230000002300002B
:10163000002300000023000000230000002300001E
:101640000023000100220000002200000022000010
:101650000022000000220000002200010021000002
:1016600000210000002100000021000000210000F6
:1016700000210000002100010020000000200000E7
:1016800000200000002000000020000000200000DA
:101690000020000000200001001F0000001F0000CB
:1016A000001F0000001F0000001F0000001F0000BE
:1016B000001F0001001E0000001E0000001E0000B0
:1016C000001E0000002028002920453A00202800A4
:1016D00029205A3A002028002920593A00202800C1
:1016E00020583A0053746570706572206375727289
:1016F000656E742076616C75657320696E20252097
:1017000028416D7073293A0A00546865726D616CE6
:101710002052756E6177617900544845524D414CB5
:101720002052554E41574159004B494C4C45442E8F
:101730002000202D20496E76616C696420657874E4
:101740007275646572206E756D62657220210A0083
:1017500048656174696E67206661696C65640048FC
:10176000656174696E67206661696C6564004D49E6
:101770004E54454D50207472696767657265640008
:101780004572723A204D494E54454D50004D4158D6
:1017900054454D50207472696767657265640045F1
:1017A00072723A204D415854454D50006265640AAA
:1017B000002C2073797374656D2073746F7070657D
:1017C0006421204865617465725F49443A200023B2
:1017D000646566696E65202044454641554C545FFA
:1017E0004B64200023646566696E6520204445468D
:1017F00041554C545F4B69200023646566696E65F2
:10180000202044454641554C545F4B7020005049C0
:1018100044204175746F74756E652066696E6973D6
:10182000686564212050757420746865206C61734C
:1018300074204B702C204B6920616E64204B642017
:10184000636F6E7374616E74732066726F6D206265
:10185000656C6F7720696E746F20436F6E66696781
:1018600075726174696F6E2E680A00504944204198
:1018700075746F74756E65206661696C656421208E
:1018800074696D656F75740A005049442041757420
:101890006F74756E65206661696C6564212054659E
:1018A0006D706572617475726520746F6F20686900
:1018B00067680A00204B643A2000204B693A2000F8
:1018C000204B703A20000A20436C617373696320D7
:1018D000504944200A002054753A2000204B753AA4
:1018E0002000206D61783A2000206D696E3A20005A
:1018F00020643A200020626961733A200070012C54
:101900000190012701B0012201C0011D01F0011861
:10191000011002130130020E01600209019002045D
:1019200001C002FF000003FA004003F5008003F04D
:1019300000D003EB002004E6007004E100E004DCCA
:10194000004005D700C005D2004006CD00D006C833
:10195000008007C3003008BE00F008B900C009B419
:1019600000B00AAF00B00BAA00D00CA500000EA07A
:1019700000500F9B00C01096005012910000148C74
:1019800000C0158700B0178200B0197D00D01B7809
:1019900000001E730040206E0090226900F0246455
:1019A0000040275F0090295A00E02B5500102E5070
:1019B0000020304B0010324600E033410090353CAF
:1019C000001037370070383200A0392D00B03A28A7
:1019D00000A03B2300603C1E00103D1900903D1408
:1019E00000103E0F00703E0A00C03E0500003F00A0
:1019F00000403FFBFF803FF6FFC03FF1FF0129029F
:101A000029042908291029202940298029012C028C
:101A10002C01260226042608261026202640268091
:101A200026402C802C01230223042308231023208A
:101A3000234023802301200220042008201020209E
:101A40002040208020102C202C012F022F042F0852
:101A50002F102F202F402F802F7EFE7EFD7EFB7EBD
:101A6000F77EEF7EDF7EBF7E7F000100001A1B1233
:101A700000020000D71A4300030000D31A04010338
:101A80000904B91A1802030904A11A160303090468
:101A9000931A0C0C0331003200330034003500007F
:101AA00000160355005300420020005300650072E9
:101AB00000690061006C00000018035400650065B7
:101AC000006E00730079006400750069006E006F9D
:101AD0000000000403090409024300020100C032AF
:101AE0000904000001020201000524001001052480
:101AF00001000104240206052406000107058203F3
:101B000008004009040100020A0000000705030262
:101B1000400000070584024000001201000202009C
:101B20000020C01683040001010203010001C1026C
:101B30000180360181364E414E494E495459494E35
:101B400046CDCCCC3D0AD7233C17B7D13877CC2B28
:101B5000329595E6241FB14F0A000020410000C8CD
:101B60004200401C4620BCBE4CCA1B0E5AAEC59D4E
:101B70007400852C557BC7976DA28D2C11241FBE38
:101B8000CFEFD0E2DEBFCDBF12E0A0E0B1E0EEEAE1
:101B9000FCE501E00BBF02C007900D92A03EB1072B
:101BA000D9F721E1A0EEB2E001C01D92AA34B2073C
:101BB000E1F71BE1CAE7DBE100E006C0229701097B
:101BC000FE010BBF0E9400A7C237D10780E00807C3
:101BD000A9F70E9493A00C9446AE0C940000FC015F
:101BE00065917591859194910895DB010D90002088
:101BF000E9F7AD0141505109461B570BDC01ED914E
:101C0000FC910280F381E02D09940C94EA9FCF931C
:101C1000DF931F92CDB7DEB76983DC01ED91FC91B4
:101C20000280F381E02D41E050E0BE016F5F7F4F05
:101C300009950F90DF91CF910895CF93DF93EAEA52
:101C4000F6E06491EF012196662329F08EE391E19D
:101C5000DEDFFE01F6CF40915805509159056091A5
:101C60005A0570915B0522E030E08EE391E1CDDF13
:101C7000E6EAF6E06491EF012196662329F08EE30F
:101C800091E1C5DFFE01F6CF40915C0550915D0505
:101C900060915E0570915F0522E030E08EE391E196
:101CA000B4DFE2EAF6E06491EF012196662329F0C1
:101CB0008EE391E1ACDFFE01F6CF409160055091DB
:101CC0006105609162057091630522E030E08EE36A
:101CD00091E19BDFEEE9F6E06491EF012196662346
:101CE00029F08EE391E193DFFE01F6CF4091640588
:101CF00050916505609166057091670522E030E0BE
:101D00008EE391E182DFDF91CF910C9456840FB680
:101D1000F8948091331190913411A0913511B091C4
:101D200036110FBE8093700390937103A0937203DA
:101D3000B093730308958091350190913601A0917D
:101D40003701B09138018093B1039093B203A0930F
:101D5000B303B093B4038091330190913401909315
:101D6000B0038093AF0384E690E0909334018093B6
:101D70003301CDCF8091B1039091B203A091B30311
:101D8000B091B4038093350190933601A09337014D
:101D9000B09338018091AF039091B00390933401D8
:101DA00080933301B4CFCF92DF92EF92FF920F93E3
:101DB0001F93CF93DF93EB01FC01608171818281DE
:101DC00093812CE3C22ED12CE12CF12CA70196019A
:101DD0000E949DA6162F072FCA01B901A7019601DF
:101DE0000E949DA6F62EE72ECA01B90128E130E037
:101DF00040E050E00E949DA6FB01C9016DE671E044
:101E00000E9476A69B014F2D5E2D21153105D9F03C
:101E10000F931F93EF92FF92FF93EF939F938F93F4
:101E20003F932F9381EA95E09F938F93DF93CF9316
:101E30000E946BAB8DB79EB70E960FB6F8949EBFFF
:101E40000FBE8DBF5BC00097C9F00F931F93EF9239
:101E5000FF92FF93EF939F938F9381E995E09F9378
:101E60008F93DF93CF930E946BABEDB7FEB73C9699
:101E70000FB6F894FEBF0FBEEDBF40C03097B9F06B
:101E80000F931F93EF92FF92FF93EF9385E895E0F6
:101E90009F938F93DF93CF930E946BAB8DB79EB7C9
:101EA0000A960FB6F8949EBF0FBE8DBF27C0452B74
:101EB000A9F00F931F93EF92FF928DE795E09F9308
:101EC0008F93DF93CF930E946BABEDB7FEB738963D
:101ED0000FB6F894FEBF0FBEEDBF10C00F931F9357
:101EE00089E795E09F938F93DF93CF930E946BAB2D
:101EF0000F900F900F900F900F900F90DF91CF9158
:101F00001F910F91FF90EF90DF90CF900895815433
:101F10008A3120F5482F50E0FA0133E0F595E79536
:101F20003A95E1F7E05EF54F208130E0877002C01E
:101F3000359527958A95E2F720FF10C0FA01EA5FF0
:101F4000F54F208180912B0A90912C0A820F911DD0
:101F50009093280A8093270A81E0089580E00895ED
:101F60001F93CF93DF938091270A9091280A0097BF
:101F700001F1FC01EF011191212F2F7D99F0153412
:101F800011F01536B9F7188260E070E08091270AE9
:101F90009091280A0E9404A71883562F472F382FA4
:101FA000292F0BC060E070E0DF91CF911F910C945E
:101FB00004A750E040E030E020E0652F742F832F2D
:101FC000922FDF91CF911F9108958091270A9091D0
:101FD000280A009731F04AE050E060E070E00C948D
:101FE0006CA860E070E0CB0108958091270A909181
:101FF000280A009731F04AE050E060E070E00C946D
:102000009DA960E070E0CB010895DFDF97FD0CC073
:10201000DCDF6F3F71058105910509F014F4D5DF10
:1020200001C06FEF862F089580E008958091270A00
:102030009091280A892B39F0E8DF91E0811101C0E5
:1020400090E0892F089581E008950F931F93CF9317
:10205000DF93CDB7DEB72C970FB6F894DEBF0FBE77
:10206000CDBF8091600590916105A0916205B0910E
:10207000630540915C0550915D0560915E0570912E
:102080005F05009158051091590520915A0530912E
:102090005B0509871A872B873C874D835E836F8397
:1020A000788789839A83AB83BC83AE014F5F5F4F90
:1020B000BE016B5F7F4FCE0109960E94996C24E6AA
:1020C00035E0AE014F5F5F4FBE016B5F7F4FCE01CA
:1020D00009960E9442792C960FB6F894DEBF0FBE87
:1020E000CDBFDF91CF911F910F9108959F92AF9235
:1020F000BF92CF92DF92EF92FF920F931F93CF93F5
:10210000DF93CDB7DEB760970FB6F894DEBF0FBE92
:10211000CDBF59017C01EE0CFF1CEE0CFF1CC7016A
:10212000885A9A4F6C01FC0110821182128213822C
:102130004D875E876F87788B88DF4D855E856F85DD
:102140007889F6014083518362837383C09077035B
:1021500020E030E0A901B801C5010E945FA3811110
:1021600008C0F701EF5CFD4FD0809180A280B38062
:1021700002C0D02E912E8091600590916105A091B2
:102180006205B091630540915C0550915D056091D9
:102190005E0570915F0500915805109159052091D9
:1021A0005A0530915B0509871A872B873C874D8339
:1021B0005E836F83788789839A83AB83BC83AE0108
:1021C0004F5F5F4FBE016B5F7F4FCE0109960E944C
:1021D000996CED2CF92C850124E635E0AE014F5FBA
:1021E0005F4FBE016B5F7F4FCE0109960E94366E36
:1021F0000E947E831092020A60960FB6F894DEBFAA
:102200000FBECDBFDF91CF911F910F91FF90EF9047
:10221000DF90CF90BF90AF909F9008959091370539
:10222000E92FF0E0E75BFC4F80839F5F943018F468
:102230009093370502C010923705809139058F5F62
:10224000809339050895CF93FC01C62F80818B338D
:1022500099F080913905843078F42091370530E683
:10226000239FC0011124BF0189549C4F0E9447AB9A
:102270008C2FD4DF81E001C080E0CF9108950F93CF
:102280001F93CF93DF93EC01DEDF8823E1F0EAE9CF
:10229000FEE064918F010F5F1F4F662329F08EE3EC
:1022A00091E1B5DCF801F5CFBE0187E998E00E9425
:1022B000597B62E28EE391E1AADC6AE08EE391E170
:1022C000A6DC81E001C080E0DF91CF911F910F91EA
:1022D0000895DF92EF92FF920F931F93CF93DF93B6
:1022E000CDB7DEB76E970FB6F894DEBF0FBECDBF89
:1022F0006091B5037091B6036115710559F14DE117
:1023000050E08E010F5F1F4FC8010E94D6AA1E8E9B
:10231000F8017F01E01AF10AD190DD2019F08AE07E
:10232000D812F7CFF801EE0DFF1D108260E0C80152
:10233000A6DF882379F0DD20B1F08FEFE81AF80AE4
:102340008091B5039091B6038E0D9F1D9093B603B7
:102350008093B50381E02091B5033091B603232B20
:1023600029F480E003C080E090E0F0CF6E960FB6D5
:10237000F894DEBF0FBECDBFDF91CF911F910F91BB
:10238000FF90EF90DF9008959093B6038093B5038C
:10239000A0CFCF92DF92EF92FF920F931F93CF9334
:1023A000DF9380916B05882309F4D5C080913905AE
:1023B000811102C01092E102FF24F3944091DA07E8
:1023C0005091DB076091DC077091DD078091D607A3
:1023D0009091D707A091D807B091D907481759070E
:1023E0006A077B0708F4F12CC0E0D0E0EE24E39408
:1023F000F0E6DF2E80913905843008F0ACC0F11092
:10240000AAC08091E1028111A6C08091310790910C
:102410003207A0913307B09134078093DA07909385
:10242000DB07A093DC07B093DD0789E297E00E9409
:10243000A340C82EFF24F3940091DA071091DB0724
:102440002091DC073091DD074091D6075091D707E6
:102450006091D8077091D907041715072607370729
:10246000C0F4F12C8F3F2FEF920751F12AE0821731
:1024700009F445C02DE0821709F441C023E2821718
:1024800019F02AE382134EC02091E00221114AC0C4
:1024900031C0E8E5F7E064918F010F5F1F4F6623BD
:1024A00029F08EE391E1B3DBF801F5CF89E695E001
:1024B0000E94D35461E089E695E00E946B511AC0F6
:1024C000E0EAFEE064918F010F5F1F4F662329F061
:1024D0008EE391E19CDBF801F5CFE9E4F7E064914C
:1024E0008F010F5F1F4F662329F08EE391E18FDB91
:1024F000F801F5CF83E2C81202C0E092E102109227
:10250000E002209709F476CF80913705D89EC00D60
:10251000D11D1124C954DC4F188280E07FDEC0E059
:10252000D0E068CFCF35D10508F064CF2BE3C212DD
:1025300002C0E092E0022091E00221115BCF909175
:102540003705FE01D99EE00DF11D1124E954FC4F21
:10255000808321964FCFDF91CF911F910F91FF90F4
:10256000EF90DF90CF9008950F931F93CF93DF9359
:10257000EC0184E5CCDC882361F147DD823038F161
:10258000EAE9FEE064918F010F5F1F4F662329F097
:102590008EE391E13CDBF801F5CF6DE48EE391E150
:1025A00036DBAE01662757FD6095762F8EE391E10D
:1025B0000E94DD9F2ADD682F70E086E397E00E948D
:1025C000837B6AE08EE391E122DB81E007C01DDDC1
:1025D00002C08091770380935D0380E0DF91CF910B
:1025E0001F910F910895CF92DF92EF92FF920F9378
:1025F0001F93CF93DF93EC01CC0FDD1FCC0FDD1FBA
:10260000FE01EE56FC4F20E030E0A90160817181AF
:10261000828193810E9486A2FE01E256FC4F2081B6
:102620003181428153810E9486A26B017C01FE01AF
:10263000EA57FC4F6083718382839383CE01895272
:10264000974FCDDA8E0106581C4FA70196010E94C4
:1026500086A2F8016083718382839383CE018553C0
:10266000974FBDDACE5EDE4FA70196010E9486A28B
:10267000688379838A839B83DF91CF911F910F9128
:10268000FF90EF90DF90CF900895CF92EF92FF925E
:102690000F931F93CF93DF93CDB7DEB72C970FB671
:1026A000F894DEBF0FBECDBFC09077038091600568
:1026B00090916105A0916205B091630540915C0520
:1026C00050915D0560915E0570915F050091580520
:1026D0001091590520915A0530915B0509871A8799
:1026E0002B873C874D835E836F83788789839A83AA
:1026F000AB83BC83AE014F5F5F4FBE016B5F7F4F0B
:10270000CE0109960E94996CE0903501F090360157
:10271000009137011091380124E635E0AE014F5F9A
:102720005F4FBE016B5F7F4FCE0109960E94366EF0
:102730002C960FB6F894DEBF0FBECDBFDF91CF91C0
:102740001F910F91FF90EF90CF9008958F929F92DD
:10275000AF92BF92CF92EF92FF920F931F93CF93BE
:10276000DF93CDB7DEB72C970FB6F894DEBF0FBE60
:10277000CDBF4B015C01C0907703809150059091D3
:102780005105A0915205B091530540914C055091CF
:102790004D0560914E0570914F05009148051091CF
:1027A000490520914A0530914B0509871A872B87E7
:1027B0003C874D835E836F83788789839A83AB835D
:1027C000BC83AE014F5F5F4FBE016B5F7F4FCE0199
:1027D00009960E94996C8501740124E535E0AE01EB
:1027E0004F5F5F4FBE016B5F7F4FCE0109960E9426
:1027F000366E2C960FB6F894DEBF0FBECDBFDF91BC
:10280000CF911F910F91FF90EF90CF90BF90AF901D
:102810009F908F90089580E1E8E4F5E0A8E5B5E0A9
:1028200001900D928A95E1F708954F925F926F9211
:102830007F928F929F92AF92BF92CF92DF92EF9250
:10284000FF920F931F93CF93DF936C017B018A015B
:10285000E9018090350190903601A0903701B09049
:102860003801FA01208131814281538160916005F4
:102870007091610580916205909163050E945FA34C
:1028800087FF2DC0488059806A807B8020E030E03F
:10289000A901B201C3010E945FA3811105C0412CAF
:1028A000512C30E820E402C0362D272DC201A32F81
:1028B000B22F8093350190933601A0933701B093E6
:1028C0003801F80180819181A281B38180936005F4
:1028D00090936105A0936205B0936305D6DE4880AE
:1028E00059806A807B8020E030E0A901B201C301F9
:1028F0000E945FA3811108C04090090150900A0115
:1029000060900B0170900C01C201D30180933501DE
:1029100090933601A0933701B0933801F60180817E
:102920009181A281B3818093580590935905A0931A
:102930005A05B0935B05F70180819181A281B38133
:1029400080935C0590935D05A0935E05B0935F0551
:102950009CDEF801208131814281538160916005C4
:102960007091610580916205909163050E9462A556
:1029700018167CF5D880E980FA80CB8120E030E021
:10298000A9016D2D7E2D8F2D9C2F0E945FA381119B
:1029900005C0D12CE12C20E8C0E401C02F2D8D2DE5
:1029A0009E2DA22FBC2F8093350190933601A093CA
:1029B0003701B0933801F80180819181A281B38100
:1029C0008093600590936105A0936205B0936305C1
:1029D0005CDE0E947E838092350190923601A09247
:1029E0003701B0923801DF91CF911F910F91FF9085
:1029F000EF90DF90CF90BF90AF909F908F907F909F
:102A00006F905F904F9008959B01AC016CE575E06D
:102A100088E595E00ACF9A0140E655E006CF8F920F
:102A20009F92AF92BF92CF92DF92EF92FF92CF939D
:102A3000DF93CDB7DEB728970FB6F894DEBF0FBE91
:102A4000CDBF20918E0330918F0340919003509120
:102A500091030E9486A26B017C016D837E838F832C
:102A600098878090590390905A03A0905B03B09090
:102A70005C0320E030E0A901C501B4010E945FA31E
:102A800087FF0AC0A5019401C701B6010E9485A273
:102A90006D837E838F8398872091600530916105D7
:102AA00040916205509163056D817E818F8198858B
:102AB0000E9462A5181654F419821A821B821C8285
:102AC000BE016F5F7F4FCE0105969EDF28960FB641
:102AD000F894DEBF0FBECDBFDF91CF91FF90EF9096
:102AE000DF90CF90BF90AF909F908F900895FF920E
:102AF0000F931F93CF93DF93882329F0F090450520
:102B000081E0F82601C0F12C662329F000914605EA
:102B100081E0082701C000E0442329F01091470517
:102B200081E0182701C010E0F11005C0011103C0B9
:102B3000112309F44FC0EAE9FEE06491EF01219608
:102B4000662329F08EE391E162D8FE01F6CFE0E33F
:102B5000F7E06491EF012196662329F08EE391E17D
:102B600056D8FE01F6CFFF2061F0EEE2F7E0649167
:102B7000EF012196662329F08EE391E148D8FE010A
:102B8000F6CF002361F0ECE2F7E06491EF012196CB
:102B9000662329F08EE391E13AD8FE01F6CF1111B8
:102BA00003C0E2E2F7E00CC0EAE2F7E06491EF0173
:102BB00021966623B1F38EE391E129D8FE01F6CF89
:102BC0006491EF012196662339F08EE391E11FD8DD
:102BD000FE01F6CF80E001C081E0DF91CF911F912F
:102BE0000F91FF9008951F93CF93DF93CDB7DEB77A
:102BF0002C970FB6F894DEBF0FBECDBF182F809173
:102C0000FF09811771F160E070E080E291E407DF75
:102C1000409158055091590560915A0570915B0596
:102C200049875A876B877C8740915C0550915D0589
:102C300060915E0570915F054D835E836F83788739
:102C400019821A821B821C829E012F5F3F4F40E631
:102C500055E0BE016B5F7F4FCE010996E6DD109314
:102C6000FF0980E02C960FB6F894DEBF0FBECDBFF3
:102C7000DF91CF911F9108954F925F926F927F9253
:102C80008F929F92AF92BF92CF92DF92EF92FF927C
:102C90000F931F93CF93DF9300D000D000D0CDB718
:102CA000DEB75C01FC01EC55F74F149182E0A816E9
:102CB000B10421F481E097DF811124C14501880C22
:102CC000991C880C991CC4018D54974F0E94EF0DDC
:102CD0002B013C01612F772767FD7095872F972F78
:102CE0000E9401A46B017C0120E030E040EC5FE336
:102CF000C301B2010E949DA5A70196010E949DA556
:102D0000AB01BC0100E010E09801C501EFD992E0F1
:102D1000A916B10479F48FEA98E00E94EF0D20E043
:102D200030E040EA50E40E945FA387FD09C08FEACB
:102D300098E003C0C4018955974F0E94EF0D04C06D
:102D400060E070E080EA90E49B01AC01C701B6014D
:102D50000E949DA56B017C0120E030E0A9010E944A
:102D60005FA3882309F45CC000E010E09801B7017C
:102D7000A6017058C501BAD986E0E1E7F1E0DE01AD
:102D8000119601900D928A95E1F7F501EE0FFF1F64
:102D900081E090E08C0F9D1FE80FF91F6081718129
:102DA00016161706F4F0EAE9FEE064918F010F5F52
:102DB0001F4F662331F08EE391E10E94070EF80168
:102DC000F4CFEDEAF6E064918F010F5F1F4F6623A9
:102DD00031F08EE391E10E94070EF801F4CF6AE032
:102DE00070E0882777FD8095982F0E9401A49B01B1
:102DF000AC01F401EF5CFD4F6081718182819381B0
:102E00000E9466A32B013C01A7019601C701B601F0
:102E10000E9486A2AB01BC0193018201C50166D963
:102E200081E0F501EB5BFA4F8083F501EE5BFA4F31
:102E30008083F401E256FC4F1082118212821382C9
:102E4000C501D1DBC4018154974F0E94EF0D84016D
:102E5000085A1A4FF401EA57FC4F20813181428110
:102E600053810E9486A2F8016083718382839383D9
:102E7000F2E0AF16B104D1F42091590330915A0316
:102E800040915B0350915C03609160057091610516
:102E900080916205909163050E9485A26093600510
:102EA000709361058093620590936305CED8F40119
:102EB000E85BFA4FD401A85ABA4F8D919D910D90BD
:102EC000BC91A02D80839183A283B38382E0A81656
:102ED000B104C1F480E026960FB6F894DEBF0FBEB1
:102EE000CDBFDF91CF911F910F91FF90EF90DF90B9
:102EF000CF90BF90AF909F908F907F906F905F909A
:102F00004F9071CE26960FB6F894DEBF0FBECDBFA0
:102F1000DF91CF911F910F91FF90EF90DF90CF90B5
:102F2000BF90AF909F908F907F906F905F904F90E9
:102F300008958091840A0895CF92DF92EF92FF92D4
:102F40000F931F93CF93DF930DE2E02E02E0F02E5C
:102F500008E415E0C8E5D5E08BEAC82E83E0D82E5A
:102F6000F70181917F010E94870F8823D1F00E9491
:102F7000B00FF6012081211104C020917603222395
:102F800029F0288139814A815B8103C020E030E04B
:102F9000A9010E9486A2F8016083718382839383D2
:102FA00009C088819981AA81BB81F80180839183BE
:102FB000A283B3830C5F1F4F2496FFEFCF1ADF0A63
:102FC00081E3E81682E0F80659F686E40E94870F4E
:102FD0008823C9F00E94B00F20E030E0A9010E94D0
:102FE00062A5181684F40E94B00F20E030E040E79C
:102FF00052E40E9466A3609335017093360180937A
:10300000370190933801DF91CF911F910F91FF907D
:10301000EF90DF90CF900895CF92DF92EF92FF92E2
:10302000CF93DF930FB6F894C0903311D090341142
:10303000E0903511F09036110FBE80910801882381
:1030400009F475C0209147033091480321153105DB
:1030500009F46DC08091430390914403A09145030E
:10306000B0914603B701A601481B590B6A0B7B0BB5
:1030700077FD70C02330310541F13CF4213031053A
:103080000CF455C0EAE9FEE007C02430310509F030
:103090004EC0EAE9FEE033C06491EF012196662359
:1030A00031F08EE391E10E94070EFE01F5CFEEEFC5
:1030B000F6E06491EF012196662309F438C08EE3AF
:1030C00091E10E94070EFE01F4CFEAE9FEE064916F
:1030D000EF012196662331F08EE391E10E94070E05
:1030E000FE01F5CFE7EEF6E06491EF01219666234D
:1030F000F1F08EE391E10E94070EFE01F5CF64919D
:10310000EF012196662331F08EE391E10E94070ED4
:10311000FE01F5CFEFECF6E06491EF012196662316
:1031200031F08EE391E10E94070EFE01F5CF209170
:10313000080130E0A8EEB3E00E94E1A66C0D7D1D11
:103140008E1D9F1D6093430370934403809345033A
:1031500090934603DF91CF91FF90EF90DF90CF9057
:1031600008958F929F92AF92BF92CF92DF92EF928B
:10317000FF920F931F93CF93DF9300D000D0CDB772
:10318000DEB785E40E94870FB82E811102C00E942D
:103190007E839DE2C92E92E0D92E2EE9E22E23E015
:1031A000F22E08E515E0812C912CA12CF6018191DD
:1031B0006F010E94870F882359F1F8012081318126
:1031C0004281538129833A834B835C830E94B00FF1
:1031D000F801608371838283938329813A814B81D3
:1031E0005C81F3E08F16A1F00E9485A29B01AC01E7
:1031F000F70160817181828193810E9486A2F7012B
:103200006083718382839383C401EDD9AA24A3943C
:10321000FFEF8F1A9F0A84E0E80EF11C0C5F1F4F2E
:10322000E4E08E16910411F6AA2019F00E942510F0
:1032300008C0BB2031F064E675E083E090E00E94B6
:103240003B7A0F900F900F900F90DF91CF911F91CD
:103250000F91FF90EF90DF90CF90BF90AF909F9035
:103260008F900C941D0E0F931F93CF93DF93CDB7C8
:10327000DEB769970FB6F894DEBF0FBECDBF8EE5FF
:1032800093E00E9464866E8B7F8B888F998FBE013E
:103290006F5F7F4FCE0146960E94D30EEAE9FEE0B3
:1032A00064918F010F5F1F4F662331F08EE391E130
:1032B0000E94070EF801F4CFBE016F5F7F4F85EBD0
:1032C00095E00E94597B6AE08EE391E10E94070E2F
:1032D00069960FB6F894DEBF0FBECDBFDF91CF91D8
:1032E0001F910F9108951F93CF93DF9380916B05EA
:1032F00081110E947E83C091290AD0912A0A80E51B
:103300000E94870F182F80916C05882349F1212F87
:1033100041E0BE0189E695E00E94BE5283E50E942D
:10332000870F882381F00E94E50FAB01BC01409319
:10333000DA075093DB076093DC077093DD0789E2BF
:1033400097E00E94704189E695E00E94544F111168
:1033500007C08EE593E0DF91CF911F910C949C867E
:10336000DF91CF911F910895BF92CF92DF92EF929C
:10337000FF920F931F93CF93DF9383E50E94870FF4
:10338000882309F450C00E94E50F6B017C018FEF88
:10339000C816D10411F008F046C080E50E94870FDE
:1033A000882309F440C00E94E50FB62EC62FD72F00
:1033B000D7FD39C0A3EDB1E08E0111272D913D91CC
:1033C0002017310729F082E0AD32B807B9F71AC0EB
:1033D000E0EAFEE06491EF012196662331F08EE38E
:1033E00091E10E94070EFE01F5CFEAE6F5E0649157
:1033F000EF0121966623B9F08EE391E10E94070E5A
:10340000FE01F5CF8B2D0E941E9AF8010C2C0E9414
:10341000C19AB6018B2D0E942F9A609721F4D09209
:103420007903C0927803DF91CF911F910F91FF90A4
:10343000EF90DF90CF90BF90089588E690E094D809
:1034400081112CC08091680583FD28C090915D0397
:1034500080917703981322C083E50E94870F882309
:10346000D9F00E94B00F0E94CEA3709368106093B1
:10347000671080E00E949A890E94B00F20E030E03F
:103480004AEA52E40E945FA3181624F08EE593E006
:103490000E942D860E94B00F0C94257B0895CF9337
:1034A000DF93EAE9F6E06491EF012196662331F0BB
:1034B0008EE391E10E94070EFE01F5CF40916F105F
:1034C00050917010609171107091721022E030E094
:1034D0008EE391E10E94050EE7E9F6E06491EF01C9
:1034E0002196662331F08EE391E10E94070EFE01E2
:1034F000F5CF4091671050916810662757FD609591
:10350000762F8EE391E10E94DD9FE3E9F6E064917E
:10351000EF012196662331F08EE391E10E94070EC0
:10352000FE01F5CF80915D0390E00E947787AC01AA
:10353000662757FD6095762F8EE391E1DF91CF915D
:103540000C94DD9FDF92EF92FF920F931F93CF9326
:10355000DF9383E50E94870F882319F00E940510EE
:1035600001C080E080936805EAE9FEE06491EF0124
:103570002196662331F08EE391E10E94070EFE0151
:10358000F5CFE3E6F5E06491EF012196662331F093
:103590008EE391E10E94070EFE01F5CF8091680550
:1035A0008823A1F109E515E0C0E0D0E020E080919A
:1035B000680590E00C2E02C0959587950A94E2F775
:1035C00080FF1BC0DD24D394D20E222329F06CE2AD
:1035D0008EE391E10E94070EF80185919491FC0120
:1035E00064917C01FFEFEF1AFF0A662339F08EE346
:1035F00091E10E94070EC701F2CFD22E21960E5FF5
:103600001F4FC530D10579F02D2DD1CFE5E5F5E07F
:103610006491EF012196662331F08EE391E10E94DF
:10362000070EFE01F5CF6AE08EE391E1DF91CF91C5
:103630001F910F91FF90EF90DF900C94070ECF93A6
:10364000DF9383E50E94870F882351F00E940510C5
:103650008D3308F08CE380930801DF91CF910895BA
:10366000EAE9FEE06491EF012196662331F08EE3F2
:1036700091E10E94070EFE01F5CF4091080150E054
:1036800060E070E08FE195E00E94037C6AE08EE3E9
:1036900091E1DF91CF910C94070E7F928F929F92D0
:1036A000AF92BF92CF92DF92EF92FF920F931F9350
:1036B000CF93DF930DE212E0CDEDDAE0712CF8014B
:1036C00081918F010E94870F882309F46CC0F3E079
:1036D0007F1263C00E94B00F6B017C0120E030E0DC
:1036E00040EA51E40E945FA387FF4EC0A701960104
:1036F0006091E90A7091EA0A8091EB0A9091EC0AD4
:103700000E9466A34B015C019B01AC016091950A8C
:103710007091960A8091970A9091980A0E949DA5AF
:103720006093950A7093960A8093970A9093980AEB
:10373000A50194016091F90A7091FA0A8091FB0A3F
:103740009091FC0A0E949DA56093F90A7093FA0A71
:103750008093FB0A9093FC0A6091C90A7091CA0A8F
:103760008091CB0A9091CC0A0E94FFA3A5019401FD
:103770000E949DA50E94D3A36093C90A7093CA0AB0
:103780008093CB0A9093CC0AC092E90AD092EA0ABD
:10379000E092EB0AF092EC0A06C00E94B00F688338
:1037A00079838A839B837394249684E0781287CFED
:1037B000DF91CF911F910F91FF90EF90DF90CF900D
:1037C000BF90AF909F908F907F900C94017B83E58A
:1037D0000E94870F8823E9F00E94B00FAB01BC0163
:1037E0004093A10A5093A20A6093A30A7093A40A7B
:1037F0004093990A50939A0A60939B0A70939C0A8B
:1038000081E294E00E94C17B6AE08EE391E10E9434
:10381000070E80E50E94870F8823A9F00E94B00F51
:10382000AB01BC014093A10A5093A20A6093A30A82
:103830007093A40A84E094E00E94C17B6AE08EE366
:1038400091E10E94070E82E50E94870F8823A9F06C
:103850000E94B00FAB01BC0140939D0A50939E0A99
:1038600060939F0A7093A00A85EE93E00E94C17B4B
:103870006AE08EE391E10E94070E84E50E94870FC3
:103880008823A9F00E94B00FAB01BC014093990AB4
:1038900050939A0A60939B0A70939C0A87EC93E07A
:1038A0000E94C17B6AE08EE391E10C94070E0895BB
:1038B00083E50E94870F882351F00E94B00F609328
:1038C000A50A7093A60A8093A70A9093A80A84E594
:1038D0000E94870F882351F00E94B00F6093850AE1
:1038E0007093860A8093870A9093880A82E40E94E4
:1038F000870F882351F00E94F50F6093A90A7093F7
:10390000AA0A8093AB0A9093AC0A88E50E94870FBD
:10391000882351F00E94B00F6093890A70938A0A3D
:1039200080938B0A90938C0A89E50E94870F8823E5
:1039300051F00E94B00F60938D0A70938E0A8093AD
:103940008F0A9093900A8AE50E94870F882351F08E
:103950000E94B00F6093910A7093920A8093930A29
:103960009093940A85E40E94870F882351F00E9467
:10397000B00F6093950A7093960A8093970A90937C
:10398000980A08958F929F92AF92BF92CF92DF9242
:10399000EF92FF920F931F93CF93DF933DE2C32EDD
:1039A00032E0D32E48E5E42E45E0F42E02E913E0A0
:1039B000C0E0D0E0F60181916F010E94870F88235B
:1039C00009F10E94B00F4B015C01F80120813181A7
:1039D000428153810E9485A29B01AC01F701608165
:1039E0007181828193810E9486A2F7016083718335
:1039F00082839383F80180829182A282B382CE0176
:103A00000E94F3122196F4E0EF0EF11C0C5F1F4FA1
:103A1000C330D10579F60E942510DF91CF911F9117
:103A20000F91FF90EF90DF90CF90BF90AF909F905D
:103A30008F900C941D0ECF93DF93EAE9FEE0649122
:103A4000EF012196662331F08EE391E10E94070E8B
:103A5000FE01F5CF83E50E94870F882321F00E94A5
:103A6000161080931E01E7EBF3E06491EF012196BD
:103A7000662331F08EE391E10E94070EFE01F5CF3F
:103A800080911E01882319F0E3EBF3E002C0EFEA16
:103A9000F3E06491EF012196662331F08EE391E12A
:103AA0000E94070EFE01F5CFE7EAF3E06491EF0113
:103AB0002196662331F08EE391E10E94070EFE010C
:103AC000F5CF40917A0350917B0360917C03709114
:103AD0007D0385EA93E00E94C17B40917E03509173
:103AE0007F03609180037091810382EA93E00E94DA
:103AF000C17B409182035091830360918403709154
:103B000085038FE993E00E94C17BE7E9F3E06491CC
:103B1000EF012196662331F08EE391E10E94070EBA
:103B2000FE01F5CF409112015091130160911401F3
:103B30007091150185E993E00E94C17B40911601C7
:103B400050911701609118017091190182E993E079
:103B50000E94C17B40911A0150911B0160911C0190
:103B600070911D018FE893E00E94C17B6AE08EE3B3
:103B700091E1DF91CF910C94070ECF93DF9385E411
:103B80000E94870F811110C080E50E94870F882353
:103B900099F00E94B00F6093660170936701809363
:103BA00068019093690108C00E94E50F1616170678
:103BB0005CF7E0EAFEE06EC089E40E94870F88238C
:103BC00081F00E94B00F2CEA35EC47E25EE30E94E0
:103BD0009DA560936201709363018093640190934B
:103BE000650184E40E94870F882381F00E94B00F52
:103BF0002CEA35EC47E25EE30E9466A360935E0127
:103C000070935F0180936001909361010E947687B9
:103C1000EAE9FEE06491EF012196662331F08EE33C
:103C200091E10E94070EFE01F5CF4091660150918F
:103C3000670160916801709169018BE893E00E94CF
:103C4000C17B2CEA35EC47E25EE360916201709142
:103C5000630180916401909165010E9466A3AB01AC
:103C6000BC0187E893E00E94E27B2CEA35EC47E256
:103C70005EE360915E0170915F01809160019091BF
:103C800061010E949DA5AB01BC0183E893E00E9405
:103C9000E27B11C06491EF012196662331F08EE33F
:103CA00091E10E94070EFE01F5CF67EA71E08EE315
:103CB00091E10E94F50D6AE08EE391E1DF91CF91F1
:103CC0000C94070ECF93DF9383E50E94870FC82FD4
:103CD000882371F00E94B00F0E94D3A370935D01FE
:103CE00060935C0121E0672B09F020E020935C10D9
:103CF00080E50E94870F882369F080915C01909194
:103D00005D01892B19F00E94161001C081E080939B
:103D10005C1031C0C1112FC0EAE9FEE06491EF01EF
:103D20002196662331F08EE391E10E94070EFE0199
:103D3000F5CF80915C10882319F067E672E002C02D
:103D400068EB71E080E793E00E94597B60915C0131
:103D500070915D018FE593E00E94837BEBE5F3E0DA
:103D60006491EF012196662331F08EE391E10E9488
:103D7000070EFE01F5CFDF91CF910895EF92FF92EC
:103D80000F93CF93DF9385E40E94870F882321F060
:103D90000E94E50FEB0102C0C0E0D0E083E40E9486
:103DA000870F882321F00E94E50F7B0103C055E0B7
:103DB000E52EF12C85E50E94870F882321F00E94D3
:103DC0001610082F01C000E083E50E94870F8823AA
:103DD00029F00E94B00F0E94CEA304C0D7FD07C0F7
:103DE00066E970E0209729F410925D0302C066E452
:103DF00070E01092480310924703882777FD809562
:103E0000982F0E9401A49701AE010E94068A81E0CA
:103E100090E09093480380934703DF91CF910F91F7
:103E2000FF90EF9008952F923F924F925F926F9282
:103E30007F928F929F92AF92BF92CF92DF92EF923A
:103E4000FF920F931F93CF93DF9365E4862E65E077
:103E5000962E72E9A72E73E0B72E08E515E0C0E0B4
:103E6000D0E0C401855495401C01F40181914F01BB
:103E7000882309F48DC0FE01EE5EFE4F2081318162
:103E800042815381FE01E658FC4F6081718182813D
:103E900093810E9486A220E030E040E05FE30E9430
:103EA0009DA59B01AC01F8016081718182819381A4
:103EB0000E9462A5181644F4CE018154974F0E94C7
:103EC000EF0D6B017C0103C0C12CD12C7601F801F0
:103ED0004080518062807380FE01EA57FC4F208150
:103EE000318142815381C301B2010E9485A29B01AD
:103EF000AC01C701B6010E9485A26B017C0120E0E4
:103F000030E040EA51EC0E9462A587FD27C020E026
:103F100030E040EA51E4C701B6010E945FA31816E1
:103F2000ECF0F5012081318142815381C701B60156
:103F30000E9485A29B01AC01C301B2010E9486A22E
:103F4000F8016083718382839383F501C082D182FB
:103F5000E282F382C1010E94F3121AC0E0EAFEE09D
:103F60006491EF012196662331F08EE391E10E9486
:103F7000070EFE01F5CFE3EFF2E06491EF01219629
:103F8000662331F18EE391E10E94070EFE01F5CF29
:103F9000F4E0AF0EB11C24960C5F1F4FCC30D1055E
:103FA00009F05FCF0E942510DF91CF911F910F91F3
:103FB000FF90EF90DF90CF90BF90AF909F908F9049
:103FC0007F906F905F904F903F902F900C941D0EBC
:103FD000DF91CF911F910F91FF90EF90DF90CF90E5
:103FE000BF90AF909F908F907F906F905F904F9019
:103FF0003F902F9008958091590390915A03A0917A
:104000005B03B0915C038093040190930501A0933E
:104010000601B09307010895CF92DF92EF92FF92CD
:10402000EAE9FEE064917F018FEFE81AF80A66235F
:1040300031F08EE391E10E94070EF701F3CFE9EE34
:10404000F2E064917F018FEFE81AF80A662331F0FD
:104050008EE391E10E94070EF701F3CF8AE50E94FB
:10406000870F882309F43FC00E94B00F6B017C01C9
:1040700020E030E040EA51EC0E9462A587FD0AC0D2
:1040800020E030E040EA51E4C701B6010E945FA39E
:1040900018161CF4E2EDF2E019C0C0925903D09258
:1040A0005A03E0925B03F0925C03C0920401D09249
:1040B0000501E0920601F092070122E030E0B7012D
:1040C000A6018EE391E10E94050E19C064917F0163
:1040D0008FEFE81AF80A662391F08EE391E10E94CF
:1040E000070EF701F3CF4091590350915A036091A5
:1040F0005B0370915C038FEC92E00E94C17B6AE0ED
:104100008EE391E1FF90EF90DF90CF900C94070E3B
:10411000CF92DF92EF92FF921F93CF93DF9383E5CD
:104120000E94870F811104C0CDE2D2E010E00EC0E2
:104130000E94B00F6B017C01C0E0B701A6018C2F7B
:104140000E943985CF5FC530C1F7EECF89910E94BB
:10415000870F882339F00E94B00FAB01BC01812F7B
:104160000E9439851F5F143089F7DF91CF911F912D
:10417000FF90EF90DF90CF900895CF93DF938093DF
:104180007703EAE9FEE06491EF012196662331F0BE
:104190008EE391E10E94070EFE01F5CF6091770357
:1041A00070E081E896E00E94837B6AE08EE391E113
:1041B000DF91CF910C94070ECF93DF930E94870E6F
:1041C000E0913805F0E0E75BFC4F80818823A1F0A7
:1041D000E4EBF2E06491EF012196662331F08EE387
:1041E00091E10E94070EFE01F5CF6AE08EE391E1B6
:1041F000DF91CF910C94070EDF91CF910895CF926C
:10420000DF92EF92FF92CF93DF93EC0180911E013A
:10421000882309F484C0C0907A03D0907B03E09097
:104220007C03F0907D03A7019601688179818A81E2
:104230009B810E945FA387FF04C0C882D982EA8263
:10424000FB82C0907E03D0907F03E0908003F090CB
:104250008103A70196016C817D818E819F810E94DF
:104260005FA387FF04C0CC82DD82EE82FF82C09014
:104270008203D0908303E0908403F0908503A7012C
:104280009601688579858A859B850E945FA387FF53
:1042900004C0C886D986EA86FB86C0901201D090F9
:1042A0001301E0901401F0901501A70196016881B7
:1042B00079818A819B810E9462A5181624F4C882A4
:1042C000D982EA82FB82C0901601D0901701E0905B
:1042D0001801F0901901A70196016C817D818E81F2
:1042E0009F810E9462A5181624F4CC82DD82EE82A2
:1042F000FF82C0901A01D0901B01E0901C01F09049
:104300001D01A7019601688579858A859B850E9494
:1043100062A5181624F4C886D986EA86FB86DF9142
:10432000CF91FF90EF90DF90CF90089580E090E0E4
:104330000E94FD8360934D0370934E0380934F035F
:104340009093500381E090E00E94FD8360935103BD
:1043500070935203809353039093540382E090E050
:104360000E94FD8360935503709356038093570317
:10437000909358030895CF93DF93EC01D7DF8DE43A
:1043800093E00E945F6DC436D10551F48CE0EDE4FA
:10439000F3E0A8E5B5E001900D928A95E1F711C030
:1043A000CC0FDD1FCC0FDD1FFE01E85AFA4FC35BB7
:1043B000DC4F88819981AA81BB8180839183A2830C
:1043C000B383DF91CF9108959091840A891759F0B2
:1043D0008093840A811103C084E690E0CCCF88E505
:1043E00095E00C945F6D089580E0EEDF80E69AE042
:1043F0000C94B894EF92FF920F931F93CF93DF9397
:1044000000D000D0CDB7DEB7182F0E947E8380E0A9
:10441000DBDF0E949B0E81E080933A01111118C0EE
:1044200088E50E94870FF82E89E50E94870F182FD4
:104430008AE50E94870FF11007C0111110C0E12C0E
:10444000882391F001E018C0082F112389F001C0E2
:1044500001E0102FEE24E394FF24F3940DC0082F05
:10446000E12CFF24F39407C0F12C00E011E004C01C
:10447000EE24E394F12C10E080E1E8E5F5E0A8E417
:10448000B5E001900D928A95E1F7111105C0E11098
:1044900003C0FF2009F440C020E030E040EA50E4CF
:1044A00060918E0370918F0380919003909191039E
:1044B0000E9486A260935005709351058093520527
:1044C00090935305209160053091610540916205FC
:1044D000509163050E9462A518165CF419821A8235
:1044E0001B821C82BE016F5F7F4F80E595E00E94BA
:1044F0000415111105C0E11003C0F11007C00CC074
:1045000080E090E00E943C161123B9F381E090E036
:104510000E943C16111102C0002321F082E090E0BD
:104520000E943C160E9425108091030A80933A0154
:104530000E94BA0E0E941D0E0F900F900F900F90C8
:10454000DF91CF911F910F91FF90EF9008951F93EE
:10455000CF93DF9386E50E94870F882331F06EE3C7
:1045600073E080E69AE00E94A49683E50E94870F9C
:10457000882329F00E941610C82F26DF01C0C0E052
:104580001091840AC11103C0EAE9FEE01CC01111B8
:10459000FBCFE0EAFEE06491EF012196662331F063
:1045A0008EE391E10E94070EFE01F5CFEFE1F3E00B
:1045B0006491EF012196662339F38EE391E10E9425
:1045C000070EFE01F5CF6491EF012196662331F0CD
:1045D0008EE391E10E94070EFE01F5CF112319F041
:1045E0006CEB71E002C060EC71E081E193E00E944D
:1045F000597B6AE08EE391E1DF91CF911F910C949A
:10460000070E0E9416840E947E8384E690E0B3DE4B
:104610000C9425102F923F924F925F926F927F924F
:104620008F929F92AF92BF92CF92DF92EF92FF92C2
:104630000F931F93CF93DF93CDB7DEB72F970FB6AE
:10464000F894DEBF0FBECDBF1C018B014D873F87A5
:104650002E87FB0180809180A280B38040908A03E6
:1046600050908B0360908C0370908D032091860393
:10467000309187034091880350918903FC01608148
:104680007181828193810E9485A26B017C0127EE5A
:104690003BEF4FE151E40E9462A587FD2BC023E868
:1046A00030E048EC52E4C701B6010E945FA318163F
:1046B0000CF1A3019201C501B4010E9485A26B0116
:1046C0007C0127EE3BEF4FE151E40E9462A587FD9C
:1046D00011C023E830E048EC52E4C701B6010E9463
:1046E0005FA318163CF00DC080E00E94F3158823EC
:1046F00009F4EBC0C12CD12CF0ECEF2EFFE7FF2E1C
:1047000040C1409035015090360160903701709063
:10471000380160E070E080EA90E40E940F1580911B
:10472000090190910A01A0910B01B0910C018093B5
:10473000350190933601A0933701B0933801198663
:104740001A861B861C8620E030E040E251E4F80126
:1047500060817181828193810E9485A26D837E83B5
:104760008F83988720E030E040E251E4F1016081DE
:104770007181828193810E9485A269837A838B8370
:104780009C83AE01475F5F4FBE016B5F7F4FCE01E1
:1047900001960E940B1581E00E94F3158111AACFAA
:1047A0000E94870E20E030E040EA50E460918E03E2
:1047B00070918F0380919003909191030E9486A243
:1047C0006B017C0169877A878B879C87809059036E
:1047D00090905A03A0905B03B0905C0320E030E01F
:1047E000A901C501B4010E945FA387FF0AC0A5010A
:1047F0009401C701B6010E9485A269877A878B87D9
:104800009C8720916005309161054091620550912F
:10481000630569857A858B859C850E945FA387FFE8
:104820000FC080E090E0A0E8B0E489839A83AB8376
:10483000BC83BE016F5F7F4FCE0109960E940415B5
:1048400080E090E0A0E0B0E48D839E83AF83B887E2
:1048500020E030E04DE053E460918E0370918F03CF
:1048600080919003909191030E9485A269837A833D
:104870008B839C83BE016B5F7F4FCE0101960E94AC
:1048800004151092020A82E090E075DD0E94251066
:104890002091590330915A0340915B0350915C037E
:1048A000609160057091610580916205909163054A
:1048B0000E9486A26B017C01FD85F11115CF60E09D
:1048C00070E080EA90E40E940F158E859F85039723
:1048D0000CF44FC0EAE1F7E064915F019FEFA91A81
:1048E000B90A662331F08EE391E10E94070EF501CB
:1048F000F3CFF101408151816281738123E030E087
:104900008EE391E10E94050EE5E1F7E064915F011D
:104910008FEFA81AB80A662331F08EE391E10E9466
:10492000070EF501F3CFF801408151816281738157
:1049300023E030E08EE391E10E94050EE0E1F7E034
:1049400064918F010F5F1F4F662331F08EE391E179
:104950000E94070EF801F4CF23E030E0B701A60172
:104960008EE391E10E94050E6AE08EE391E10E94E0
:10497000070E4092350150923601609237017092D5
:104980003801C701B6012F960FB6F894DEBF0FBEEF
:10499000CDBFDF91CF911F910F91FF90EF90DF90EE
:1049A000CF90BF90AF909F908F907F906F905F90CF
:1049B0004F903F902F9008954F925F926F927F9209
:1049C0008F929F92AF92BF92CF92DF92EF92FF921F
:1049D000CF93DF93CDB7DEB728970FB6F894DEBF3D
:1049E0000FBECDBF88E50E94870F882319F00E9473
:1049F000B00F0EC020E030E040E251E46091580575
:104A00007091590580915A0590915B050E9486A28C
:104A10006D837E838F83988789E50E94870F882323
:104A200019F00E94B00F0EC020E030E040E251E4E7
:104A300060915C0570915D0580915E0590915F05C8
:104A40000E9486A26B017C0169837A838B839C839D
:104A500040908A0350908B0360908C0370908D037C
:104A600020918603309187034091880350918903F8
:104A70006D817E818F8198850E9485A24B015C01AA
:104A800027EE3BEF4FE151E40E9462A587FD7DC018
:104A900023E830E048EC52E4C501B4010E945FA372
:104AA00018160CF472C0A3019201C701B6010E944E
:104AB00085A26B017C0127EE3BEF4FE151E40E94A0
:104AC00062A587FD62C023E830E048EC52E4C701EC
:104AD000B6010E945FA318160CF457C080E074DC86
:104AE0000E949B0E83E50E94870F882309F44BC028
:104AF0000E94161021E030E0482FBE016F5F7F4F0B
:104B0000CE01059687DD6B017C019B01AC010E9403
:104B10004BA6811133C02CEA35EC47E257E36D8197
:104B20007E818F8198850E9486A2AB01BC018CEEAC
:104B300095E00E94E27B2CEA35EC47E257E369817D
:104B40007A818B819C810E9486A2AB01BC0187EE99
:104B500095E00E94E27B2CEA35EC47E257E3C7017F
:104B6000B6010E9486A2AB01BC0182EE95E00E94D4
:104B7000E27B6AE08EE391E10E94070E0E94BA0E8A
:104B80000E941D0E02C081E0B5CF28960FB6F894A2
:104B9000DEBF0FBECDBFDF91CF91FF90EF90DF90D2
:104BA000CF90BF90AF909F908F907F906F905F90CD
:104BB0004F9008952F923F924F925F926F927F9203
:104BC0008F929F92AF92BF92CF92DF92EF92FF921D
:104BD0000F931F93CF93DF93CDB7DEB7C558D1099D
:104BE0000FB6F894DEBF0FBECDBF41E061E081E0BB
:104BF0000E94771581119DC2C12CD12C760100E055
:104C000010E024EB32E440E050E060E771E4CE01D4
:104C100001960E94629100E010E020EA31E440E059
:104C200050E060E771E4CE010D960E94629100E0D1
:104C300010E020EA31E440E050E064EB72E4CE01A1
:104C400049960E946291B090840A8AE40E94870F7C
:104C5000882311F0C9DB6DC286E50E94870F882387
:104C600051F08091270A9091280A892B21F00E9407
:104C7000E50F1B0102C0212C312C25E02216310446
:104C800080F0E3E4F6E064917F013FEFE31AF30A7A
:104C9000662309F44EC28EE391E10E94070EF701EC
:104CA000F2CF84E40E94870F882341F00E941610FF
:104CB000CF57DF4F8883C158D04005C0CF57DF4F53
:104CC0001882C158D0402114310429F1ECE2F6E0F9
:104CD00064917F014FEFE41AF40A662331F08EE30A
:104CE00091E10E94070EF701F3CFCF57DF4F5881B4
:104CF000C158D040552379F0E3E1F6E064917F019B
:104D00008FEFE81AF80A662331F08EE391E10E94F2
:104D1000070EF701F3CF0E947E831092840ACF57CB
:104D2000DF4F9881C158D040911105C084E690E0D2
:104D300022DB0E9425100E949B0E81E00E94F31549
:104D4000811149C119A21AA21BA21CA21D8A1E8A86
:104D50001F8A188E19861A861B861C8685E40E9477
:104D6000870FA82EDE0111967D016E01B5E2CB0EF4
:104D7000D11C209186033091870340918803509184
:104D80008903F70160817181828193810E9486A2EB
:104D90006D966CAF7DAF8EAF9FAF6D9720918A03FC
:104DA00030918B0340918C0350918D03D701149661
:104DB0006D917D918D919C9117970E9486A2699625
:104DC0006CAF7DAF8EAF9FAF699791014A2DBE0149
:104DD0006B5A7F4FCE01875A9F4F1CDC2B013C0141
:104DE0009B01AC010E944BA68111F5C0F7014086E2
:104DF000518662867386FCE0EF0EF11CEC14FD0414
:104E000009F0B7CFCF57DF4F2881C158D0402111CB
:104E1000DDC0AD84BE84CF84D888E988FA880B8948
:104E20001C892D893E894F89588DBE01675E7F4F51
:104E3000CE01C1960E943F92AD84BE84CF84D888B3
:104E4000E988FA880B891C892D893E894F89588DFC
:104E5000BE016F5F7F4FCE0185960E943F924DB796
:104E60005EB74C5051090FB6F8945EBF0FBE4DBFF0
:104E7000ADB7BEB711968CE0FE01F19601900D9290
:104E80008A95E1F7CDA0DEA0EFA0F8A409A51AA5A8
:104E90002BA53CA54DA55EA56FA578A9CE01CD9605
:104EA0000E947C91BE01635C7F4FCE01875B9F4F68
:104EB0000E9437932D96CCACDDACEEACFFAC2D97B9
:104EC00061968CAD9DADAEADBFAD6197CE57DF4F56
:104ED00088839983AA83BB83C258D04065968CACE3
:104EE0009DACAEACBFAC65970FB6F894DEBF0FBEFD
:104EF000CDBF20E030E0A901C501B4010E945FA34D
:104F000087FF19C0F7FAF094F7F8F094CE57DF4F07
:104F1000288139814A815B81C258D0405058CE5790
:104F2000DF4F288339834A835B83C258D040B7FA66
:104F3000B094B7F8B0942D96CCAEDDAEEEAEFFAE29
:104F40002D97CE57DF4F0881C258D040CE57DF4F44
:104F5000288139814A815B81C258D04061962CAF4B
:104F60003DAF4EAF5FAF6197482D65968CAE9DAE5D
:104F7000AEAEBFAE65972B96DFAC2B972C96EFAC01
:104F80002C972D96FFAC2D972F961FAD2F976096DF
:104F90002FAD609761963FAD619763965FAD639764
:104FA00064966FAD649765967FAD6597CE01835A21
:104FB0009F4F0E94E29484E2FE01E35AFF4FA0E675
:104FC000BAE001900D928A95E1F7B12C80E00E9441
:104FD000F315882319F0B092840AABC00E94BA0E70
:104FE000232831F064EF75E080E69AE00E94A496F1
:104FF000CF57DF4F3881C158D040311186C08CE087
:10500000E8E5F5E0DE01DD9601900D928A95E1F785
:1050100081E08093840ACE01CD960E945F6D10924C
:10502000840A20E030E040E251E46D966CAD7DAD45
:105030008EAD9FAD6D970E9485A29B01AC016091E2
:1050400058057091590580915A0590915B050E9411
:1050500085A26B017C012DEB37E346E855EB0E94FE
:1050600062A587FD49C02DEB37E346E855E3C7014C
:10507000B6010E945FA318160CF43EC020E030E099
:1050800040E251E469966CAD7DAD8EAD9FAD699700
:105090000E9485A29B01AC0160915C0570915D0549
:1050A00080915E0590915F050E9485A26B017C0155
:1050B0002DEB37E346E855EB0E9462A587FD1CC047
:1050C0002DEB37E346E855E3C701B6010E945FA325
:1050D000181694F0A301920160916005709161052A
:1050E00080916205909163050E9485A229966CAF1C
:1050F0007DAF8EAF9FAF29978CE0FE01FD96A8E5AE
:10510000B5E001900D928A95E1F70E941D0E81E0B5
:1051100090E09093480380934703CF57DF4F488137
:10512000C158D04041118B2D8093840A81110E9477
:105130002510CB57DF4F0FB6F894DEBF0FBECDBFA3
:10514000DF91CF911F910F91FF90EF90DF90CF9063
:10515000BF90AF909F908F907F906F905F904F9097
:105160003F902F900895CF92DF92EF92FF9288E4C4
:1051700095E045D80E94870E8091680583FDA1C007
:10518000C0905405D0905505E0905605F090570515
:105190002091640530916505409166055091670541
:1051A000C701B6010E945FA3882309F48AC08091D9
:1051B0005C1081113CC060915C0170915D0180E0E8
:1051C00090E00E94FFA39B01AC0160916F10709171
:1051D000701080917110909172100E945FA387FFF0
:1051E00026C0C0926405D0926505E0926605F092F3
:1051F0006705EAE9FEE064917F018FEFE81AF80A9B
:10520000662331F08EE391E10E94070EF701F3CFA0
:10521000E9E9F2E064917F018FEFE81AF80A66236A
:1052200031F08EE391E10E94070EF701F3CFC090B9
:105230005405D0905505E0905605F0905705209103
:105240006405309165054091660550916705C70179
:10525000B6010E9485A20E94CEA397FF07C0909539
:105260008095709561957F4F8F4F9F4F693C710579
:105270008105910534F1C0926405D0926505E092F4
:105280006605F0926705EAE9FEE064917F018FEF21
:10529000E81AF80A662331F08EE391E10E94070EC6
:1052A000F701F3CFEAE7F2E064917F018FEFE81AAC
:1052B000F80A662331F08EE391E10E94070EF701B0
:1052C000F3CF209148053091490540914A0550910E
:1052D0004B05609158057091590580915A05909140
:1052E0005B050E945FA381111DC020914C05309188
:1052F0004D0540914E0550914F0560915C057091B0
:105300005D0580915E0590915F050E945FA381110C
:1053100009C06091350170913601809137019091FB
:1053200038011AC06091330170913401882777FDEC
:105330008095982F0E9401A420913501309136016B
:1053400040913701509138010E949DA52AE037ED28
:1053500043E25CE30E949DA50E94A613FF90EF909C
:10536000DF90CF900C940B14CF92DF92EF92FF92CC
:105370006B017C018091AA03882321F120E030E0B9
:10538000A901C701B6010E945FA38823D9F020E0DC
:1053900030E040E05FE3C701B6010E949DA59B019C
:1053A000AC010E949DA52BED3FE049E450E40E9432
:1053B0009DA59B01AC0160E070E080E89FE30E9446
:1053C00066A304C060E070E080E89FE3FF90EF9088
:1053D000DF90CF900895609127017091280180910E
:1053E000290190912A01C0DF60931F017093200171
:1053F000809321019093220160912B0170912C01E7
:1054000080912D0190912E01AFDF60932301709365
:10541000240180932501909326010895CF93DF9373
:1054200088EC90E00E94B41281115FC084E40E9475
:10543000870F882309F456C00E94B00FC1E020E016
:1054400030E0A9010E945FA3811101C0C0E0C093B8
:10545000AA03CC2309F446C0C0915D03D0E00E94AA
:10546000B00FFE01EE0FFF1FEE0FFF1FE95DFE4FB5
:10547000608371838283938320E030E0A90160918F
:105480002701709128018091290190912A010E94A1
:105490005FA381110CC080E090E0A0E4B0E48093B1
:1054A000270190932801A0932901B0932A0120E0BD
:1054B00030E0A90160912B0170912C0180912D01A8
:1054C00090912E010E945FA381110CC080E090E0BA
:1054D000A0E4B0E480932B0190932C01A0932D01C4
:1054E000B0932E01DF91CF9176CFDF91CF910895C8
:1054F00077987698479843988C980895439A8C9A11
:10550000089583E50E94870F882399F00E94B00FC9
:1055100020E030E04AE754E40E949DA50E94D3A316
:1055200060930D0170930E0180930F019093100111
:10553000089588E50E94870F811111C089E50E94B6
:10554000870F81110CC08AE50E94870F811107C067
:1055500085E40E94870F811102C00C9413840E947D
:105560007E8388E50E94870F882319F0779A10922E
:10557000420589E50E94870F882319F0769A1092D8
:1055800043058AE50E94870F882319F0479A1092F5
:10559000440585E40E94870F8111B0CF0895779A62
:1055A00010924205769A10924305479A109244054C
:1055B000A5CFE0EAFEE06491EF012196662331F089
:1055C0008EE391E10E94070EFE01F5CFE7E1F2E0E4
:1055D0006491EF012196662331F08EE391E10E9400
:1055E000070EFE01F5CF0E94ED89D9DF2FEF8BE486
:1055F0009DE1215080409040E1F700C00000F89408
:105600002FEF84E39CE0215080409040E1F700C000
:1056100000000E94ED89A895FECF1F93CF93DF93E2
:1056200080E885BF85BF40E950ED63E070E08EE320
:1056300091E10E9405A2E0E1F2E06491EF01219680
:10564000662331F08EE391E10E94070EFE01F5CF53
:10565000EAE9FEE06491EF012196662331F08EE3E2
:1056600091E10E94070EFE01F5CF14B710FF0DC0A7
:10567000E7E0F2E06491EF012196662331F08EE3DA
:1056800091E10E94070EFE01F5CF11FF0DC0E6EF7C
:10569000F1E06491EF012196662331F08EE391E110
:1056A0000E94070EFE01F5CF12FF0DC0E4EEF1E0FF
:1056B0006491EF012196662331F08EE391E10E941F
:1056C000070EFE01F5CF13FF0DC0E3EDF1E064918D
:1056D000EF012196662331F08EE391E10E94070EDF
:1056E000FE01F5CF15FF0DC0E2ECF1E06491EF0192
:1056F0002196662331F08EE391E10E94070EFE01B0
:10570000F5CF14BEEBEBF1E06491EF012196662337
:1057100031F08EE391E10E94070EFE01F5CF60E2C9
:105720008EE391E10E94070EE4EBF1E06491EF015A
:105730002196662331F08EE391E10E94070EFE016F
:10574000F5CF6AE08EE391E10E94070EEAE9FEE000
:105750006491EF012196662331F08EE391E10E947E
:10576000070EFE01F5CFE4EAF1E06491EF01219626
:10577000662331F08EE391E10E94070EFE01F5CF22
:10578000E3E9F1E06491EF012196662331F08EE3C5
:1057900091E10E94070EFE01F5CFE0E7F1E0649190
:1057A000EF012196662331F08EE391E10E94070E0E
:1057B000FE01F5CFE9E5F1E06491EF012196662362
:1057C00031F08EE391E10E94070EFE01F5CFEAE988
:1057D000FEE06491EF012196662331F08EE391E1C2
:1057E0000E94070EFE01F5CF0E94D546BC018AE457
:1057F00091E00E94837B60ED74E083E391E00E947E
:10580000837B6AE08EE391E10E94070E81E0809342
:10581000490380934A0380934B0380934C030E9477
:10582000615E8CE0E2E9F3E0A8E5B5E001900D925D
:105830008A95E1F70E94251083E790E10E94418953
:105840000E94F2960E942B831092FF09DF91CF9164
:105850001F910C94098525E432E0FC0131832083FB
:105860002681222319F003960C94534208958F92B7
:105870009F92AF92BF92CF92DF92EF92FF920F93DF
:105880001F93CF93DF938C0183549E4FE4DF680115
:105890008DE6C80ED11CC114D10421F1780187E630
:1058A000E81A8EEFF80AE70157018EE1A81AB1084D
:1058B000B5E48B2EB2E09B2ECC15DD0599F0FE01F0
:1058C000EE19FF09EA0DFB1D91828082FE01789797
:1058D0008081811102C06E97EFCFCE014B970E945D
:1058E0005342F9CFC801815B9F4FB5DFC8018F9646
:1058F000DF91CF911F910F91FF90EF90DF90CF90AC
:10590000BF90AF909F908F90A6CF89E695E00E94C0
:10591000A74B8EE593E00C941D8689E695E0A7CF12
:10592000CF93DF938EE391E10E946CA2E7EBF2E06C
:105930006491EF012196662331F08EE391E10E949C
:10594000070EFE01F5CF40913A0550913B0560915D
:105950003C0570913D054F5F5F4F6F4F7F4F8EE36A
:1059600091E10E94DD9F6AE08EE391E10E94070EC3
:10597000DF91CF910C94DC20FF920F931F93CF9374
:10598000DF93F82E092F162FE0EAFEE06491EF0175
:105990002196662331F08EE391E10E94070EFE010D
:1059A000F5CFEF2DF02F6491EF012196662331F0B2
:1059B0008EE391E10E94070EFE01F5CF40913A057A
:1059C00050913B0560913C0570913D058EE391E15E
:1059D0000E94DD9F6AE08EE391E10E94070E1111A3
:1059E0009FDF1092750310927403DF91CF911F9186
:1059F0000F91FF9008958F929F92AF92BF92DF9286
:105A0000EF92FF920F931F93CF93DF93809139050D
:105A1000843008F033C18EE391E10E9499A01816FA
:105A200019060CF02BC18EE391E10E94D2A02091C7
:105A30007403309175038A3019F08D3009F0EEC08F
:105A4000109242032115310509F3F901EE51FD4F82
:105A50001082109275031092740382EE92E07C0122
:105A6000FC01208101962032D1F3E7012E3411F0A0
:105A7000E12CF12C6AE270E0CE010E9433AB8C0184
:105A8000E114F10409F474C062E978E0CE010E94E7
:105A9000E5AADD24D394892B11F4D12C09C06EE43E
:105AA00070E0CE0104960E9433AB009709F07C01B0
:105AB0004AE050E060E070E0C70101960E946CA8E7
:105AC00060933E0570933F05809340059093410598
:105AD00080903A0590903B05A0903C05B0903D0524
